:020000040800F2
:10000000B8060020B5010008BD010008BF010008C6
:1000100000000000000000000000000000000000E0
:10002000000000000000000000000000C101000806
:100030000000000000000000C301000825260008A1
:10004000C7010008C7010008C7010008C701000870
:10005000C7010008C7010008C7010008C701000860
:10006000C7010008C7010008C7010008C701000850
:10007000C7010008C7010008C7010008C701000840
:10008000C7010008C7010008C70100080000000000
:10009000C7010008C7010008C7010008C701000820
:1000A000C7010008C7010008C7010008352600087D
:1000B000A1260008C7010008C7010008C701000801
:1000C00000F002F800F067F812A030C808382418D1
:1000D0002D18AC4201D100F05EF80FCCA246AB4621
:1000E0000CA730CF2D1B083F3F197C427F1E544484
:1000F0002D090426F441641EAC4201D300F04BF8F4
:100100000126334200D0FB1A3343984754465D46DC
:10011000DFE70000583A0000783A0000103A02D3B6
:1001200078C878C1FAD8520701D330C830C101D598
:1001300004680C6070470000704700000023002432
:1001400000250026103A01D378C1FBD8520700D30E
:1001500030C100D50B60704710B5662902D103F09D
:100160005FFC10BD752902D100F054F810BD0020CD
:1001700010BD1FB501F024FB04000020002103F096
:1001800079FA401C60600020002103F05DFAE06015
:100190001FBD10B510BD01F08BFF1146FFF7E9FF41
:1001A00002F0BCFA01F0B2FF03B4FFF7F2FF03BCA8
:1001B00002F0B6F80748804707480047FEE7FEE729
:1001C000FEE7FEE7FEE7FEE704480549054A064B61
:1001D0007047000031260008C1000008B800002068
:1001E000B8060020B8020020B80200200FB41CB5E9
:1001F000074B06AA7B4469460090059800F06FFF04
:100200000020694600F07EFF1CBC08BC04B0184703
:100210000D0F0000F7B5002575291068009914A688
:1002200011D0C046C046002802DA404211A608E0BC
:10023000009909688A0701D50FA602E0490704D58D
:100240000EA6012501E0C046C046009F00242437C9
:1002500004E000F095FF30313955641C0028F8D1D6
:100260002B4632462146009800F0D2FCFEBD00002D
:10027000000000002D0000002B0000002000000006
:10028000F3B50446002081B020622046E16888472B
:1002900000287AD0252802D06268A16871E0E16860
:1002A00020460025884706460020E0610746A061F9
:1002B0002A2E0AD0304603F058F9002827D0B8007B
:1002C0000019303E0090866119E00298BA001219B8
:1002D00002C8916102902046E1688847012F0646D6
:1002E00017D1E06900281FDA202085431CE0009820
:1002F0000A21806948430099801930388861204676
:10030000E1688847064603F030F90028EFD1012F55
:100310000AD02E2E08D12046E168884706462020C4
:1003200005437F1C022FC3DBA069002803DA40428B
:10033000A06101200543E80701D010208543002E6D
:1003400023D030464138192803D80120C002054384
:100350002036204625603146029A1546FFF7FCFEFE
:1003600000280BD0012806D0ED1DE808C000083099
:1003700002908AE709E02D1D029586E76268304603
:10038000A1689047206A401C7EE7206AFEBD70B5D8
:10039000064600F039FC0468054630460A22002172
:1003A00000F0B6FE2C6070BD30B5441C03E001784F
:1003B000401C00290DD08107F9D10B4BDD0104C889
:1003C000D11A91432940FAD0001B0A0603D0C01E5F
:1003D00030BD001B30BD0A0401D0801E30BD0902B3
:1003E000FCD0401E30BD00000101010100220309C4
:1003F0008B4273D3030A8B4258D3030B8B423CD3FB
:10040000030C8B4221D312E003460B437FD400221E
:1004100043088B4274D303098B425FD3030A8B4298
:1004200044D3030B8B4228D3030C8B420DD3090218
:10043000FF2212BA030C8B4202D31212090265D0BA
:10044000030B8B4219D300E0090AC30B8B4201D383
:10045000CB03C01A5241830B8B4201D38B03C01ACA
:100460005241430B8B4201D34B03C01A5241030B41
:100470008B4201D30B03C01A5241C30A8B4201D3F2
:10048000CB02C01A5241830A8B4201D38B02C01A9D
:100490005241430A8B4201D34B02C01A5241030A14
:1004A0008B4201D30B02C01A5241CDD2C3098B42F9
:1004B00001D3CB01C01A524183098B4201D38B0176
:1004C000C01A524143098B4201D34B01C01A524119
:1004D00003098B4201D30B01C01A5241C3088B425E
:1004E00001D3CB00C01A524183088B4201D38B0049
:1004F000C01A524143088B4201D34B00C01A5241EB
:10050000411A00D201465241104670475DE0CA0FC1
:1005100000D04942031000D3404253409C46002281
:1005200003098B422DD3030A8B4212D38901FC228B
:1005300012BA030A8B420CD3890192118B4208D361
:10054000890192118B4204D389013AD0921100E0C3
:100550008909C3098B4201D3CB01C01A52418309D7
:100560008B4201D38B01C01A524143098B4201D304
:100570004B01C01A524103098B4201D30B01C01A2F
:100580005241C3088B4201D3CB00C01A52418308A9
:100590008B4201D38B00C01A5241D9D243088B42FF
:1005A00001D34B00C01A5241411A00D201465241B8
:1005B000104663465B1001D34042002B00D54942F0
:1005C000704763465B1000D3404201B504490028E0
:1005D00002DC491C084000E00846C046C04602BD97
:1005E000FFFFFF7F70477047704700000246C80F4B
:1005F000C00781434B0030B54B405B009B0D20D0C2
:100600001923DB06C91801231B05994220DB0324AB
:10061000A40704251346AB400BD3002B04D1EB06F3
:1006200013409B00E34204D4012464070023121901
:100630005941FF231B0599420BD2C9000143500FBA
:1006400009E0CB0204D501430803024305D0054865
:1006500030BDFF21C905084330BD08460721090503
:10066000884330BD0000C07FF0B5F94D0C091E096C
:100670002C402E402F468BB0A7437DD0B543FCD0F5
:10068000002E7AD0002CFCD00D465D40ED0F2543A6
:10069000AC1BFF25AD0464190894C502440DC902C2
:1006A0002143500DDC0204430120C00701430443F1
:1006B000D2020191200C110C00958C4601042346B6
:1006C0008B430A9161460904E24D8A430991010A6C
:1006D0007D4449198039097805464D4301266D1836
:1006E000F605751B6943C90C640B891C4C436418DF
:1006F000B5012C1B250C2E04B4434C434D43210C57
:10070000691889090591009DE90701D00121C907F0
:1007100004912C4601996708CD072F434C08059D8D
:10072000E10B4D432D0C29466646754302950D4657
:1007300045432E46029D7D1BB44100950D465D4309
:1007400001942C0C2F040D465543AE462D0C3D4311
:10075000029503947546049C2D04641B049406D2F0
:10076000029C039D641C002675410395029401AC14
:1007700070CC009F7D1B01E03EE162E1B4410904C1
:100780000095079101940599A4086143090C0C4652
:100790004443650BE7040C4666467443A646640B67
:1007A0003C43039502947446049DE4042C1B04947A
:1007B00006D2029C039D641C002675410395029499
:1007C00001AC70CC009F7D1BB44101940C465C438E
:1007D0000095650FE7000C465443A646640F3C4362
:1007E000039502947446049DE4002C1B049406D2E5
:1007F000029C039D641C002675410395029401AC84
:1008000070CC009F7D1BB441AE09AF06049DC900AA
:10081000AD092F43049DA406AD060495079D3443FE
:1008200069180791059DE10B4D432D0C294666463D
:10083000754302950D4645432E46029D7D1BB441EE
:1008400000950D465D4301942C0C2F040D46554335
:10085000AE462D0C3D43029503947546049C2D0431
:10086000641B049406D2029C039D641C00267541FF
:100870000395029401AC70CC009F7D1BB4410194A0
:100880008C050694079C890A611800950791019CC4
:100890000599A4086143090C0D464543680BEF0414
:1008A0000D46644665436C0B3C43049FED047D1B81
:1008B000AC4602D20025641C6841009E019D371B96
:1008C00085410846584301950C46460FC5005443E0
:1008D000600F28436546E4002C1B02D20025401C13
:1008E0006E41019D3F1AB5412846BD098006284347
:1008F0008446A009BF064E020699A406761807434F
:10090000079D002068410A99079019430020099B20
:1009100000906046FF1913434041E20F64003A43E0
:10092000A4460446D71A8C41A04203D90120009066
:1009300020463A46C70F941840416246D20F2243E0
:10094000644664000494009CBE466400D71AA44622
:10095000044602978C417746002F01D1A04204D96A
:100960006046401C8446029A2046C40FA64694184E
:100970004041049A0546D20F224364466400D31ACC
:100980008D417146002901D1A84202D928461A4654
:10099000641C10430122002800D01643610200208D
:1009A000079B891904465C410223002C02DB49188D
:1009B00013466441089DCE0A2D145D194B05670549
:1009C000E10A2C050D1908993E43C9076940002B1F
:1009D00008D0934006D30022761C5141002B01D150
:1009E000760876001C4A002D43DB154241D0AA430D
:1009F0003FD030460BB0F0BD06180D464D41174CA8
:100A00007642AC411AD395181C465C41134A6D429C
:100A1000A24113D3012252054C00D4420AD15C00FA
:100A2000D4420BD04B4002D592021143E2E7490079
:100A30004908DFE75940C90FC90718E000200849F5
:100A4000D8E7054801420DD10342F7D0F2E7000094
:100A50000000FF075C3300000000F07F0000E0FFB3
:100A60000000F87F114859400143C0124140002066
:100A7000C0E70123089A9B069A4205DC032252072D
:100A80008918C90FC907B5E7052252078918074A0F
:100A90001143D2125140ADE770B515461C460246CF
:100AA0000B4628462146FFF7DFFD70BDFFFFFF7FA5
:100AB0001F22030C02D10F22000402D0030E03D028
:100AC00004E00020014670470002083A030F01D1FC
:100AD0000001121F830F01D18000921E002801DB4C
:100AE0004000521E120551184205C012411810460E
:100AF0007047C10FC90700D040420122920711433D
:100B0000D6E701218907D3E70121C905012341184F
:100B100042001B06D3185B0E0AD0C1100722D20672
:100B2000891840075242D14201D5520089187047B6
:100B3000090208D50146002A03D0C10FC9070020C9
:100B4000704710467047420202D0002002497047A9
:100B5000072109050143F4E70000F87F10B50146BD
:100B60009E240002CA15A307002A02D01843002AB7
:100B700004DBA21A002A0CDDD04010BD1206120EB2
:100B800001D140004008A21A03D4D04040420028BE
:100B9000F3DDFF2248001206904201D9002010BD6B
:100BA000C817C043584010BD1F22030C02D10F22AA
:100BB00000041CD0030E01D10002083A030F01D13A
:100BC0000001121F830F01D18000921E002801DB5B
:100BD0004000521ED205511802125118192290409D
:100BE00004D3491C002801D1490849000846704730
:100BF000C10FC90700D04042012292071143D3E739
:100C000001218907D0E70000004870470800002054
:100C1000FFB504460D4681B0243000902168880657
:100C200004D51022E0699143216000E00120A84230
:100C300001DD471B00E000270498A1697A1910180C
:100C4000081AA0612078C00602D42046C046C046DB
:100C5000002608E003986268A168805D9047206ADA
:100C6000401C761C206204988642F3DB2078C00684
:100C70000AD52046C046C04606E06268A16830201A
:100C80009047206A401C206238467F1E0028F4DC12
:100C900007E000986268A168405D9047206A401CA8
:100CA000206228466D1E0028F3DC2046C046C04660
:100CB0002078000602D5022005B0F0BD0120FBE738
:100CC000FFB50C461E468FB003CA089009914F002D
:100CD0007D0D00D16D1E002108460020C046032175
:100CE000099A89050840002A03DA82008018400822
:100CF0000840800D01280A9002DD0020C0430A90C0
:100D0000089807430DD0F048F049281848430714C5
:100D1000189800281DD07542291E1DDD0A984242F0
:100D20001BE01898012802D00020302104E00020A8
:100D3000F24305E02154401CB042FBDB3046002268
:100D4000189B002121540F998B600A60486013B0F2
:100D5000F0BDBD1B6D1CDFE70A9A002900DA69426D
:100D60000BA800F011FE0BAB07CB03AB07C3089930
:100D7000099800F075FE6B4607C30146D448091870
:100D8000002D00910BDDD24903980A9A4942401880
:100D9000002303A90390684601F0D2F808E0039904
:100DA0000A9A0023081803A90390684601F072F814
:100DB0006B4607C30004000C03D00020C043410869
:100DC00000E01046189A002A03D00022009215462F
:100DD0001EE0751E05D400F0F7FC303262556D1E22
:100DE000F9D501220843079602D000227F1C04E0B7
:100DF0002078302801D100227F1E002A069787D054
:100E00001EE0112D07DA00F0DFFC303262556D1C58
:100E100002460A43F5D1084303D00098002819D0B0
:100E20000EE00021681E05E0235C625C63542254DE
:100E3000401E491C8142F7DBA81B401E0795069007
:100E4000079A18990020A0540F98079B069A816072
:100E50000CC07CE711260020189059E7D21DF0B590
:100E60000D460446D10893B0C90003C90C900D91FA
:100E700002F01EF902460D98C00F01D02D2007E0A8
:100E80002068810701D52B2002E04007C00F4001F8
:100E9000032A0F9001D0072A05DB03462946204686
:100EA00000F0DAFC0EE12078800601D5E76900E069
:100EB00006272846652D04D0662814D0672D69D1F1
:100EC0002DE00020112F009001DB112300E07B1C9E
:100ED0000CAA03A910A8FFF7F3FE11990026109899
:100EE0007D1C0E9142E001203B460CAAC0070B90EE
:100EF0000120009003A910A8FFF7E2FE119D1298AF
:100F00001099002600280E9501D1781C0D18781B29
:100F100002D446427D1C761EE81B00903AE0012F69
:100F200000DA01270020112F009001DD112300E0DD
:100F30003B460CAA03A910A8FFF7C2FE11993D4633
:100F4000109800260E91217809070BD40E99A9421A
:100F500000DA0D4603A9012D04DD4A19203AD27F9B
:100F6000302A06D0B84201DA011D04DA01210091CD
:100F70000FE06D1EEFE7002802DC86192D1A03E052
:100F8000411CA94200DD0D46801B401C0090012041
:100F9000C0070B902078000705D40098A84202DB18
:100FA0000020C043009069460020C8720B980121C0
:100FB00002AF0337C907884225D0022010902B20AA
:100FC00011900B9800280BDA40420B902D201190C5
:100FD00006E00B9800F0D4F830317F1E0B9039708A
:100FE0001099481E00291090F3DC0B980028F0D1CE
:100FF00011987F1E38702088000501D5452000E03B
:1010000065207F1E387001A8C01BC01D0B900F9873
:10101000002800D0012041190098C01709180B982A
:101020000818A169081A401EA0612078C00602D4E1
:101030002046C046C0460F98002805D06268A168C7
:101040009047206A401C20622078C00625D52046A3
:10105000C046C04621E0002E07DB0E98B04204DDFA
:1010600003A86268805DA16802E06268A168302020
:101070009047206A761C401C20620098401E002881
:1010800000900AD100F09CFBC06862680168405C77
:10109000A1689047206A401C206228466D1E0028E7
:1010A000D9DC07E062683878A1687F1C9047206A25
:1010B000401C20620B99481E00290B90F2DC204650
:1010C000C046C046032042E601FCFFFF104D000071
:1010D000E1DFFFFF01694A1C02610878704700B533
:1010E0008FB0029100210591054901937944039144
:1010F000114604906846FFF7C3F80FB000BD00002A
:10110000E5FFFFFF0A681070521C0A60704700007C
:10111000F7B50F460026009C2578641C002D05D0ED
:1011200000F046FB0068405DC007F5D12B2D02D0D2
:101130002D2D18D0641E3946029A204600F0D0FBAF
:10114000002F04D03968A14201D10099396071059E
:10115000022400290BDA4042002803DDFFF754FD8A
:101160000460A007FEBD012080020643E3E70028DB
:10117000F8DAFFF749FD04600048FEBDFFFFFF7F7E
:1011800001468008081A02091018020A1018020CF9
:101190001018C008820012185200891A01E0401C81
:1011A0000A390A29FBD27047F0B50C46871A9C41D0
:1011B0000D46861A9D4103D2C01BA141D21963413D
:1011C0000D0D1F0DC94EEC1BAE435CD07F057F0D8E
:1011D0000026002F51D02D05AC46A943DD02012386
:1011E000ED0A1B051D4320231B1B24D41746E74093
:1011F000381871412F46E740CC199D4028183146D8
:1012000061410C0D27D161449A4013D50023401C45
:10121000594152000ED14008400001224B005205B6
:10122000D34207D305204007C14201D5B04900E0B1
:10123000B0493046F0BD6B00002A00D001229A1858
:101240001F23203C1B1B01D5002302E0E54028188A
:1012500071410C0DD7D0012424050919C407CD070D
:1012600040084908E40F28436144002CD5D00024ED
:10127000401C61419A40D0D1CDE76A05520DD9D1C9
:10128000C90FC907D5E79C4D4E00002801D00124A5
:1012900000E0002434195F00002A01D0012600E09C
:1012A0000026BE19954FAC420CD8AE420AD8B442C3
:1012B00006D001256D05EC42BCD010461946F0BDA4
:1012C0009942FCD000203946F0BDF0B51FB40C4661
:1012D0000F46811A9F412546861A9D4106D2012557
:1012E000ED076F40401ABC4152187B41210D1E0D85
:1012F0008D1BAC467D4D8D437ED075056D0D7CD02C
:101300000D05AE46AC431B031B0B794D52429D416C
:10131000202366469B1B14D31746F7403818002637
:101320000090744160462F460741E41900989D40A3
:101330002818664116D4714671189A4025D50123A4
:1013400020E093182A466A415200002B00D0521C1C
:101350001E23203E9B1B002B61DD3541EE17281814
:101360006641E8D5001876415B1C9A4000D3401CCA
:101370004B05F3181524E34010D3002B52D07146CF
:101380007118D30FC01802D3491C05B0F0BD01235A
:10139000DB079A42F9D140084000F6E701225205E6
:1013A000B21801D1002853D00123CC0ADB029943A3
:1013B000891E002A08D1020C03D0020C0004103947
:1013C00002E00246002020390023550B05D112020D
:1013D0000823550B01D152010D23550C01D11201E7
:1013E0001B1DD50C01D192009B1C150D01D1520083
:1013F0005B1C2025EE1A01E02CE022E00546F540BA
:1014000015439840CA1AE10769181305C918002A3C
:10141000BBDA032040070818C10FC9070FE0714667
:101420006118B2E7F10740080843711071444A009F
:101430000CD001235B059A42A7D2C90FC90700202F
:10144000A3E74905490D26D1002001E00028F4D189
:1014500000219AE7284D6600002801D0012100E014
:10146000002171185F00002A01D0012600E000264B
:10147000BE19224FA94210D8AE420ED8B14208D0B0
:1014800001256D05E94206D01946A80241401046E3
:101490007BE79C4201D0214677E70020394674E77C
:1014A00010B50C465C4005D50124E4076340FFF706
:1014B0000CFF10BDFFF778FE10BD30B40C465C4049
:1014C00004D50124E407634030BC6DE630BCFCE683
:1014D00070B50124E40761400D465D4002D4FFF77A
:1014E00063FE70BD6340FFF7F0FE70BDFF070000B4
:1014F0000000F0FF0000F07F0000E0FF0000F87F38
:10150000F0B58B4C0F09254689B0BD437BD01D0932
:101510002646AE43FAD00E465E402740F60F3E43C5
:10152000254071D024012142FBD0FF24AD19A40431
:101530002D1B039501252D05DB02DB0AC9022B4378
:10154000C90A29431E010901040F130F0501214394
:101550001701880B820391432D098C46A90B1E436A
:101560008A039543B30B9A0396433F09BA0B94033E
:10157000A74302962E467E430497B6464E19D719C6
:101580000C460196544305977E43371B7646BF1B96
:101590003601B646BE0B361900967646BC0437199E
:1015A000009C01D3641C00946400002F01D001262C
:1015B0003443029E049F754366467E43049676003C
:1015C00034196E0034190094029C019E1C19664364
:1015D000751BAE46069465464519059C05956C43FA
:1015E000594375460891691A0191049E0146514379
:1015F000A41B0491611A009C0791E10605D06109C2
:101600000122114302E072E06EE06109089D0027AB
:101610002C0A2D066918049D7C412A0A2D0669189A
:10162000019D6241AC0DAD026D185441079A910DB8
:10163000920255196141029A644658435443069BED
:10164000059A5A43121A131B9A0E9B015B187A4192
:10165000010B0005C3185141220A200644195A41C2
:101660009A4200D2491C01204002814203D3152333
:101670000226F64302E014230326F6432020C51A6F
:10168000A9401746AF40DA400A4320460399D840A4
:101690000914731819055118039A3843D207514099
:1016A000AC4009D00122944006D30022401C514195
:1016B000002C01D1400840001E4A934212D301225F
:1016C00003989206904207DB0520400709181A4844
:1016D0000143C012414004E0032040070818C10F35
:1016E000C907002009B0F0BD0020F107FAE705188E
:1016F0000C464C4111486D42A04115D394181A462E
:101700005A410E48644290410ED301204A004005E0
:10171000824209D35A00824206D35940C90F084A6F
:10172000C90700201143DDE700200649DAE7000081
:101730000000FF07FE070000FFFFFF7F0000E0FF43
:101740000000F07F0000F87F70B505464800440DAA
:10175000124B0020002C0AD0634008D09A4206DACF
:101760006642B24203DD12054019514170BD002CA2
:1017700008D0002B09D0C90FC907002AF6DB084A98
:10178000114370BDC90FC90770BD28460A03104335
:1017900002D00020034970BD284670BDFF0700003D
:1017A0000000F07F0000F87F00487047080000202C
:1017B00010B500F005F8001D10BD00BFB91E0000F7
:1017C00000487047280000200B4670B50246890784
:1017D0008008084319469D08141AA94125090807DD
:1017E000054308092C194841250A01060D43010A41
:1017F0002C194141200C0D0428430D0C00194D41BA
:10180000002140194D41C00869070843E908840FC9
:101810008D002543840024184D4124196D41121B6D
:10182000AB4107E00925ED432C1152196341002417
:10183000401C61411C460A250026551BB441F1D2CB
:1018400070BD10B5FFF7E0F9006810BD10B5044693
:10185000FFF7DAF9046010BDF8B51F46044601230E
:101860000068DB02032601461840072A05DB002832
:1018700001D017A506E017A504E0002801D016A5A1
:1018800000E016A5102081432160A069C01E002F32
:10189000A06101D0401EA0612046C046C046002F76
:1018A00009D038466268A1689047206A401C2062CF
:1018B000C01C206206E0206AFAE762682878A16806
:1018C0006D1C9047761EF8D22046C046C046F8BD33
:1018D0004E414E006E616E00494E4600696E6600D4
:1018E000F7B5154682B00027029C2078641C01974A
:1018F000302802D0002D15D015E020780127641C77
:10190000782804D0582802D0002D09D00BE0002DF3
:1019100001D0102D07D1207800271025641C02E08B
:10192000082500E00A250026009610E0009901270E
:101930006943081829467143020C80B200908E1842
:101940003804864201D3012001902078641C294686
:1019500000F0CDFB0028E9DA0398002805D0002F1D
:1019600001D0641E00E0029C04600198002806D0AB
:10197000FFF74AF902210160C81E05B0F0BD0099C9
:1019800030040843F9E70000F7B516468AB033483B
:1019900078446C4603467C33C06F5A689B680DC41C
:1019A0002E487844763003AC0DC80DC43720C001F2
:1019B000081837211B30FEF727FD05460C46803DF1
:1019C0001B3C02D56442012000E000200027099062
:1019D00010E0E0070CD00C202049784379443246CF
:1019E0004C3941186846012300F054FA6B4607C38E
:1019F00064107F1C002CECD1184F7F442E3F16E062
:101A0000E80712D02001C0190EC80691089307926A
:101A10000068F04201D1981908903246012306A9C6
:101A200003A800F037FA03AB07C36D10641C002D48
:101A3000E6D10998002806D032466946012303A85A
:101A400000F07EFA05E001233246694603A800F063
:101A500021FA0A9B07C30DB0F0BD0000442100002D
:101A6000034640000A4610B5400D0BD00121C907BE
:101A70000F24A40200191C0364082143540D2143C0
:101A8000D20207E000210120F2E7D40F49002143F0
:101A90005200401E0029F8DADB0FDB07184310BDA7
:101AA000FFB50D46144685B04868516801F0E7FA65
:101AB00000910190A868A16801F0E1FA02910390F9
:101AC000A868616801F0DBFA029A12188242029259
:101AD00001D2012000E00020019A0B18D218002842
:101AE000019202D08A4202D903E08A4201D2012047
:101AF00000E000200099081800906868A16801F0D3
:101B0000BEFA029A12188242029201D2012000E02B
:101B10000020019A0B18D2180028019202D08A42A4
:101B200002D903E08A4201D2012000E0002000999E
:101B300008180090286821684000490040084908BA
:101B40004018FA49471814E001994000C90F0843AA
:101B50000090019802994000C90F08430190029833
:101B600003994000C90F08430290039840007F1E6C
:101B7000039000980028E7DA0898002801D0EC4E7E
:101B800000E00026B74201DA012000E00020002832
:101B900004902AD0F71BF806C00E15D0029B202116
:101BA000091A039A8B401A430392029A019BC2407E
:101BB0008B401A430292019A009BC2408B400099CD
:101BC0001A430192C14000917B110DD06F46032052
:101BD000C11A03D500218200B95003E08A008100B8
:101BE000BA587A50401EF3D5374603980299002818
:101BF00000D00120014308980291002808460CD02B
:101C0000002800D001200199019A490508430121CB
:101C1000D20AC902D202019200E001210E9B0122E8
:101C2000D207012B02D0002B03D013E0002807D1EC
:101C300020E0904204D890420CD1019B0B4209D085
:101C4000019B5918019105D10099491C009101D1BE
:101C50007F1C009200280DD0102108460020C046AD
:101C60000498002806D00F98002803D008210846C1
:101C70000020C04628682168019B009A4840C10F97
:101C80000598C90739430EC009B0F0BDFFB587B04C
:101C9000099A089808995368926840688968964636
:101CA0000022039317469446089A12685300099A33
:101CB0005B081268520052089A1A9E4BD4180A9A6E
:101CC000002A01D0352200E04022069200220123A2
:101CD00015460492DB07059324E0002D05D17546D7
:101CE0000346039E4D1BB34109D375466646039BCD
:101CF000491B049D9841059B7519AC465F4163469D
:101D00003B4308D0059B049EDD0776082E435B0805
:101D10000496059301E0521E641EC50FED07491895
:101D20004041521C069B9A42D7DB002D04D17546D8
:101D3000039A6B1A824101D203200CE0039A0B46EE
:101D40006B404240134303D0014303D0012002E023
:101D5000022000E0002061460191002100970291DD
:101D60000A99002905D0614640020143704B019158
:101D700002E08007002302909C4201DA012000E08B
:101D8000002007003AD01A1BD006C00E15D0029DC5
:101D90002021019C091AC5408C402543029C8C409F
:101DA00000D001242543019C0295009DC4408D4034
:101DB00000992C430194C140009154111DD06D46EF
:101DC0000221002202290CD10320001B07E0002879
:101DD00004DB8600AE59002E00D00122401C0328EF
:101DE000F5DB081B02D588002A5004E08000285843
:101DF00010438A00A850491EE3D51C460A980028C3
:101E000002980CD0002800D001200199019A4905C0
:101E100008430121D20AC902D202019200E0012145
:101E2000109B0122D207012B02D0002B03D013E01C
:101E3000002807D11FE0904204D890420CD1019BAA
:101E40000B4209D0019B5918019105D10099491CF9
:101E5000009101D1641C009200280CD0102108468A
:101E60000020C046002F06D01198002803D008217A
:101E700008460020C04608980999019A009B00680E
:101E800009684840C10F0798C907214382600AC00A
:101E90000BB0F0BD00B585B0019300920A46014633
:101EA000002302A8FFF7FCFD02A807C805B000BD8B
:101EB000FFB50A461F4685B007990193012300919B
:101EC000014602A8FFF7ECFD02990398049ECA0F91
:101ED0004900D20700920F22490892028C1A002171
:101EE000002800DB0C46450013486D08844214D3DB
:101EF000079A002A04DA441E0026104DF64302E039
:101F000004460D460E46102108460020C046002F0C
:101F100003D0042108460020C0462005E90A0843F2
:101F2000009908436905F20A1143ADE602C0FFFFBC
:101F3000013C0000FF3F0000FF070000FFFFFF7FA4
:101F400000B585B0019300920A460146002302A81D
:101F5000FFF79CFE02A807C8A8E7FFB50A461F4680
:101F600085B00799019301230091014602A8FFF76C
:101F70008DFE02990398049ECA0F4900D207009271
:101F80000F22490892028C1A0021002800DB0C461F
:101F9000450011486D08844214D3079A002A04DAD8
:101FA000441E00260D4DF64302E004460D460E4643
:101FB000102108460020C046002F03D00421084607
:101FC0000020C0462005E90A084300990843690536
:101FD000F20A114358E60000FF070000FFFFFF7FF1
:101FE00030B50346CA02400D1043164D164C0A1573
:101FF00002D02043002A06DBAA1A002A12DDD040B4
:10200000FF2A0BDC30BD5205520D01D140004008C3
:10201000AA1A07D4D0404042FF2A01DD002030BD7B
:102020000028FCDD4A00002B01D0012000E0002048
:10203000101801225205D042F0D8C817C0436040A2
:1020400030BD00001E0400000000008010B5FF231A
:102050001B0644009C421DD84C009C421AD80346E3
:10206000124A0B4307D4401A02D3EFF3008010BD8D
:10207000EFF3008010BD081A03D3EFF30080904304
:1020800005E0EFF3008001219043C907084380F386
:10209000008810BD0D231B041A4204D011460020F5
:1020A00000F094F810BD00F0F9F810BD00000090A9
:1020B0007546FFF779FBAE46050069465346C008F2
:1020C000C000854618B020B5FEF77EF860BCB64665
:1020D00000260027C0C5C0C5C0C5C0C5C0C5C0C595
:1020E000C0C5C0C5403D490849008D4670473A28E3
:1020F00000D23038202302469A43412A01D31046A9
:102100003738884201D30020C043704710B50446D9
:10211000C046C0462046FEF747F810BD82078B0731
:102120009A423FD170B5920F0AD0032402780B78FF
:10213000401C491C002A33D09A4231D12042F5D1AB
:10214000214EF40104C808C9951B9543254018D1B8
:102150009A420FD104C808C9951B9543254010D158
:102160009A4207D104C808C9951B9543254008D158
:102170009A42E7D012BA1BBA01209A4200D24042DA
:1021800070BD12BA1BBA2DBA18241000E040190015
:10219000E140401A05D12E00E64002D1083CF4D1BE
:1021A000D01A70BD02780B78401C491C002A09D057
:1021B0009A4207D102780B78401C491C002A01D0B2
:1021C0009A42EFD0D01A704701010101C80212D51E
:1021D0004803400F002804D0C803C04301218840B1
:1021E0007047EFF30080000100090321090708434D
:1021F00080F300887047002070470000F8B5264C37
:102200004E00069DA6420AD8A64201D1002806D15A
:102210005E00A64203D8A6420AD1002A08D00D24A7
:102220002404254233D029460020FFF7CFFFF8BD14
:102230000C461C4311D4994207D0C81A02D3EFF3BD
:102240000080F8BDEFF30080F8BD801A02D3EFF3F1
:102250000080F8BDEFF30080F8BD09242407E500F5
:102260008B4207D0581A02D3EFF3008006E0EFF359
:10227000008007E0101A03D3EFF30080A04303E0CF
:10228000EFF30080A043284380F30088F8BD009559
:1022900000F00CF8F8BD00000000E0FF10B50248A7
:1022A00000F00EF810BD00000000C07F10B5002047
:1022B0000249029A00F004F810BD00000000F87F07
:1022C00010B50C461107090F092904D00A290AD0B4
:1022D00008290CD104E011460820FFF777FF06E03B
:1022E000510606D501E0510601D50120C00721465F
:1022F00010BDD10607D501010909CC084907000E18
:102300000006044309E0410F20024907000A014387
:10231000200E00061D22D14101430846E7E70000D8
:1023200001491820ABBEFEE72600020070470000FE
:10233000F0B581B0FF20F630B84902460B689B0724
:102340000BD40B689B0708D40B689B0705D4D21EDF
:10235000F4D10022D0B201B0F0BDB14B00221A601E
:102360001C68272C08D81C68272C05D81C68272C2B
:1023700002D81C68282CF3D30C68A407E417054680
:102380000E68B60708D50E68B60705D50E68B607FD
:1023900002D5ED1EF4D1DDE705460E68B60708D478
:1023A0000E68B60705D40E68B60702D4ED1EF4D148
:1023B000D0E700221A601D68272D08D81D68272D38
:1023C00005D81D68272D02D81D68282DF3D37F2539
:1023D000AC430D686D0140262E40A41905460E68D9
:1023E000B60708D50E68B60705D50E68B60702D53C
:1023F000ED1EF4D1AEE705460E68B60708D40E68A8
:10240000B60705D40E68B60702D4ED1EF4D1A1E7D5
:1024100000221A601D68272D08D81D68272D05D8B1
:102420001D68272D02D81D68282DF3D30D682D01B6
:1024300020262E40344305460E68B60708D50E68A0
:10244000B60705D50E68B60702D5ED1EF4D181E7B3
:1024500005460E68B60708D40E68B60705D40E68A0
:10246000B60702D4ED1EF4D174E700221A601D688D
:10247000272D08D81D68272D05D81D68272D02D8BF
:102480001D68282DF3D30D68ED0010262E4034432F
:1024900005460E68B60708D50E68B60705D50E685E
:1024A000B60702D5ED1EF4D154E705460E68B6070F
:1024B00008D40E68B60705D40E68B60702D4ED1E20
:1024C000F4D147E700221A601D68272D08D81D683F
:1024D000272D05D81D68272D02D81D68282DF3D378
:1024E0000D68AD0008262E40344305460E68B60739
:1024F00008D50E68B60705D50E68B60702D5ED1EDD
:10250000F4D127E705460E68B60708D40E68B6076B
:1025100005D40E68B60702D4ED1EF4D11AE70022E6
:102520001A601D68272D08D81D68272D05D81D683D
:10253000272D02D81D68282DF3D30D686E000425C1
:10254000354006460F68BF0708D50F68BF0705D599
:102550000F68BF0702D5F61EF4D1FBE600950646CC
:102560000F68BF0708D40D68AD0705D40D68AD0727
:1025700002D4F61EF4D1EDE600221A601E68272E62
:1025800008D81E68272E05D81E68272E02D81E6878
:10259000282EF3D30F6802263E4007460D68AD078C
:1025A00008D50D68AD0705D50D68AD0702D5FF1E2E
:1025B000F4D1CFE607460D68AD0708D40D68AD0726
:1025C00005D40D68AD0702D4FF1EF4D1C2E6002782
:1025D0001F601A68272A08D81A68272A05D81A6897
:1025E000272A02D81A68282AF3D3009A14433443BE
:1025F0000A689207D20F22430B689B0700D4A9E612
:102600000B689B0700D4A5E60B689B0700D4A1E6E6
:10261000C01EF1D13A46D0B201B0F0BD100000505A
:10262000241000403A480169491C01617047C046C6
:102630007047000019480168C8B2612805D06D28AC
:102640000AD1324900220A7016E030480121017097
:102650002F480021C17070472C4A1278002A0BD0F5
:102660000246303A092A0ED82948C278531CC37052
:10267000801820228154704764214143254808185E
:102680002549086070470D2801D00A28E0D120486C
:10269000012101710021C1707047C04624380140FA
:1026A00019480168C8B2612805D06D280AD11749B8
:1026B00000220A7016E0154801210170144800211B
:1026C000C1707047114A1278002A0BD00246303A86
:1026D000092A0ED80E48C278531CC37080182022D5
:1026E00081547047642141430A4808180A49086028
:1026F00070470D2801D00A28E0D105480121017159
:102700000021C1707047C0462444004000000020F2
:102710006800002040EDFFFF380000409CB0DD4D18
:102720002868012420432860A70700263E60DA4875
:102730004068DA4900F0A8FB401EB862D848F86249
:102740007C61386820430497386028681021109114
:1027500008432860D04F7868D04900F095FB401EB0
:10276000D0494860CE488860084624380168214333
:1027700001607D201290C100786800F085FB401E4A
:10278000C94948600E968E60072008900860294667
:102790000C391191086820430860600429680143DE
:1027A0002960A0032A1F0D921168014311600520C2
:1027B00003071868BD49014019601868BC49014306
:1027C0001960032013908002D9688143D9601120D9
:1027D0008002196A01431962FF200001596A81438E
:1027E00059624B200101039170395A6A0A430F93D1
:1027F0005A62C6017868314600F046FBAD4F394653
:102800001039086038461C382D250560E006AA49B5
:102810000860A1484068314600F036FBA74E3146BB
:102820001039086030461C3805602007A24908604E
:1028300011990868204308601298820010460C30F5
:102840000D9B196801431960924838380168129449
:10285000214301600168490708D40168490705D48C
:102860000168490702D401684907F3D50F99086840
:10287000139B18430860C8689843C860904B186859
:10288000C00700D0CEE21298C10718680B91084328
:1028900018601868002808D51868002805D5186839
:1028A000002802D518680028F3D40C9218681299F1
:1028B00008431860194608390868C00708D1086835
:1028C000C00705D10868C00702D10868C007F1D069
:1028D0000A91129D1D62D86804210D910843D860A9
:1028E000119A10680221099108431060694908682B
:1028F0002843086073480168C02291430160016861
:102900008024214301600F210903026A8A43026285
:102910006903026A0A4302625F4840685F4900F047
:10292000B3FA401E049A90620398C938D0620C989A
:102930009063089800039169814391611398400363
:10294000916901439161604831309169014391611E
:10295000106A109908431062106820431060506993
:102960002843506110682843106020200F9D11906B
:10297000A862494840885549554A564B564C0C6305
:102980004B630E9B8B63CB630B644A64534A8A642C
:102990000C46FEF735F92346E062424C18790028D0
:1029A00010D018462030FDF7F2FC3B49488000214A
:1029B000464A916311711299917080B2FEF720F925
:1029C000424BD86218690E99401A3F49884200D894
:1029D000CFE00C20C143A8680840A8606868099B44
:1029E00098436860E8680840E86028680D9A1043DA
:1029F000082290432860AB6200202060039B22687D
:102A00009A4208D222689A4205D222689A4202D299
:102A100022689A42F3D3099AAA6120602268132A95
:102A200008D82268132A05D82268132A02D82268F7
:102A3000142AF3D3EA680A40EA602A680A402A6046
:102A4000EA680A40EA602A680A402A6020601F4A51
:102A50002168272908D82168272905D8216827292E
:102A600002D821682829F3D32969890739D400209D
:102A7000206021684F2908D821684F2905D821688E
:102A80004F2902D821685029F3D32969890727D50E
:102A9000129826E0381002400000002040420F004B
:102AA000FFFF00002410004010E000E00FC3C3FF50
:102AB000A01428001C38014000E100E01C44004044
:102AC0000824014000040050CF07000068000020E7
:102AD00000007A44CDCC4C3D6F12033B0000FA431A
:102AE000C0432969890708D52969890705D5296956
:102AF000890702D529698907F3D45070FFF718FCBC
:102B0000D5494871FFF714FCD3498871FFF710FCD1
:102B1000D149C871FFF70CFCCF490872FFF708FCD8
:102B2000CD494881CC48007AC97909020D18CA48B4
:102B300085818079C849497909020818C649C88140
:102B400080B2FDF7DEFF00242246C44BFDF78CFD6A
:102B5000FDF74CFDC049C861A8B2FDF7D2FF22467F
:102B6000BE4BFDF781FDFDF741FDBB4B9861186938
:102B70000E90B84908680D9A104308600A9A1068C8
:102B8000400708D41068400705D41068400702D4F5
:102B900010684007F3D5886B1C78139080B2FEF75D
:102BA0002FF80546002C12D0AB484069AC4900F024
:102BB00077FE04462846AB4900F072FE214600F03D
:102BC000D5FD0546FDF7CAFF1390A34C02E012980D
:102BD000A14C20706561E069FDF796FF05461091F4
:102BE000A069FDF791FF02460B46139880B200954D
:102BF000109901911390029014AC20469AA1FDF710
:102C0000F5FA0F9D1198A8612046FDF7CDFB00282D
:102C100005D0012829D10021129A104067D18C4C8F
:102C20003068400608D43068400605D43068400655
:102C300002D430684006F3D51198A8628348007822
:102C4000012800D0D7E01398FDF7DAFF0146824C47
:102C5000E06A00F07DFE05460B998843E16B00F0C9
:102C600079FC002861D12A4660E0024612998A4325
:102C7000002102E0891C9142CED014AB5B5CF36072
:102C80003468240608D43468240605D4346824063D
:102C900002D434682406F3D5FB603B681B0608D4D5
:102CA0003B681B0605D43B681B0602D43B681B0629
:102CB000F3D514AB5B185B78F3603468240608D452
:102CC0003468240605D43468240602D43468240603
:102CD000F3D5FB603B681B06CCD43B681B06C9D40C
:102CE0003B681B06C6D43B681B06F3D5C2E714A895
:102CF000405CF0603168090608D43168090605D4E3
:102D00003168090602D431680906F3D5F8603868DD
:102D1000000684D43868000681D43868000600D5DF
:102D20007DE738680006F2D579E700224A4D696BE5
:102D30000692104600F0B4FDA96B00F017FD0446A2
:102D4000A863296C686C0790089100F001FE3F2190
:102D5000090600F0A5FD05462046294600F0EFFBD8
:102D600005900028139500D12546139C0B984440EC
:102D70002846214600F0EEFB0028109400D1109563
:102D800005980028344A06D12846214600F0CCFB9D
:102D9000314A002801D110989063116B06981446AF
:102DA00000F07EFDFDF7B0FE00F0E6FBFDF71EFC37
:102DB0000146139800F074FDA16C00F0D7FC0146A9
:102DC000109800F0D3FC0446079D294600F0B7FB9D
:102DD000002800D125462846089C214600F0BAFB71
:102DE000002828460F9D00D104462046FDF7B6FE78
:102DF00004998863164C184B18690C9A1969091ABA
:102E0000914200D3CAE51969091A914200D3C5E578
:102E10001969091A914200D3C0E51969091A91424A
:102E2000ECD3BBE518680221014319601868C0079C
:102E300000D128E51868C00700D124E51868C0074C
:102E400000D120E51868C007F0D11CE50000002083
:102E500024100040082401406800002000002440A5
:102E6000CDCC4C3FCDCC4C3E54454D503D252E3124
:102E7000663B2048554D493D252E31663B20414457
:102E8000433D25750D0A000043088B421AD30022EA
:102E900003098B4279D3030A8B425ED3030B8B4227
:102EA00042D3030C8B4227D30902FF2212BA030C30
:102EB0008B4202D31212090203D0030B8B4233D38D
:102EC0001AE0D3E0411A8041401C704703460B438F
:102ED00071D443088B42F5D3002203098B4254D3AB
:102EE000030A8B4239D3030B8B421DD3030C8B4255
:102EF00002D394466EE0090AC30B8B4201D3CB0385
:102F0000C01A5241830B8B4201D38B03C01A52412A
:102F1000430B8B4201D34B03C01A5241030B8B422C
:102F200001D30B03C01A5241C30A8B4201D3CB0217
:102F3000C01A5241830A8B4201D38B02C01A5241FC
:102F4000430A8B4201D34B02C01A5241030A8B42FF
:102F500001D30B02C01A5241CDD2C3098B4201D317
:102F6000CB01C01A524183098B4201D38B01C01A95
:102F7000524143098B4201D34B01C01A524103090C
:102F80008B4201D30B01C01A5241C3088B4201D3BB
:102F9000CB00C01A524183088B4201D38B00C01A68
:102FA000524143088B4201D34B00C01A5241411A8F
:102FB000524110007047CA0F00D04942031000D39D
:102FC0004042534000229C4603098B422DD3030A02
:102FD0008B4212D38901FC2212BA030A8B420CD312
:102FE000890192118B4208D3890192118B4204D33B
:102FF000890137D0921100E08909C3098B4201D3BE
:10300000CB01C01A524183098B4201D38B01C01AF4
:10301000524143098B4201D34B01C01A524103096B
:103020008B4201D30B01C01A5241C3088B4201D31A
:10303000CB00C01A524183088B4201D38B00C01AC7
:103040005241D9D243088B4201D34B00C01A52419E
:10305000411A00D201465241104663465B1000D32C
:103060004042704763465B1000D3404201B50021E7
:10307000004201D0C9430846C046C04602BDF8B56B
:10308000040C8BB2264682B25E43104658430D0CA8
:10309000370C360400218019164679416E43370CEF
:1030A00036048019264679416E438919F8BD00001F
:1030B0004900CA020243100000D004204A0D01D08A
:1030C00001221043044A490D914201D102210843D3
:1030D000012800D105207047FF070000F8B504461D
:1030E0004F1EC8000838211815461E460868496852
:1030F0003A4606239A4310D02A463346FEF700FA92
:103100003A46D200083AA3181A687F1E5B68FEF799
:10311000C7F906223B469343EED1022F23D0042F5A
:1031200011D0062F2FD12A463346FEF7E9F9E36A7C
:10313000A26AFEF7B5F92A463346FEF7E1F9636A5B
:10314000226AFEF7ADF92A463346FEF7D9F9E3695C
:10315000A269FEF7A5F92A463346FEF7D1F963695D
:103160002269FEF79DF92A463346FEF7C9F9E3685E
:10317000A268FEF795F92A463346FEF7C1F963685F
:103180002268FEF78DF9F8BD10B50122FEF7DCFAD2
:1031900010BD000010B50721024A00200907FEF704
:1031A000D3FA10BD01030000034A10B50020110737
:1031B000FEF7CAFA10BD000001FDFFFFF0B505469D
:1031C000CE0F4F00BF48F6077F088DB00C468742F0
:1031D00033D3BD4B9F4223D3BC48874213D338031C
:1031E000000B284305D028462146FFF7CDFF0DB040
:1031F000F0BD002E03D1284621460DB0F0BD0020C1
:10320000B3490DB0F0BDB34A2846214600F07AFA22
:1032100006D20220FEF71AFBFFF7BCFF0DB0F0BD8F
:10322000002E0AD0AC4AAD4B28462146FEF738F9AD
:103230000022134600F034FAE1D3A948874255D959
:10324000A848874217D2A84AA84B002E28462146F4
:1032500008D0FEF725F90490A648A54F0591C6179A
:1032600003902DE0FEF729F90490A348A04F0591A3
:103270000126039024E0A14AA14B28462146FEF7EF
:103280003FF9002E2FD000229E4BFEF709F9FEF7E2
:10329000A7FE0646FDF72DFC0746934A934B009187
:1032A000FEF72EF92A462346FEF712F905910490FF
:1032B0008F4A914B38460099FEF722F90746039151
:1032C0003A46039B05990498FEF7F7F805460C4625
:1032D000059B049AFEF7FCF83A46039BFEF7EDF8CF
:1032E0000791089010E00022874BCEE7874887427D
:1032F00009D228462146FFF7DBFE042800D07AE7F2
:10330000FFF752FF77E700260022D24328462146E6
:10331000FEF71AFA2A46234602910090FEF7F0F8CB
:10332000074602467A480B46039105217844FFF789
:10333000D5FE3A46039BFEF7E3F80022754BFEF7F5
:10334000AFF80A900491029B009AFEF7D9F8002288
:10335000714BFEF7BDF82A46234600910290FEF716
:10336000CFF800226D4BFEF7B3F805910C90009B4F
:10337000029A04990A98FEF7A0F8059B0C9AFDF7AB
:1033800073F93A46039BFEF7BBF8002E2CD0079B3F
:10339000089AFEF792F82A462346FEF7B1F8079BF3
:1033A000089AFEF78AF83A46039BFEF786F8074626
:1033B0000591701C26D0012E31D0B01C01DD382EB5
:1033C00054DD0B463A4628462146FEF781F8514C1B
:1033D00000222346FEF77CF8320589180022234696
:1033E000FEF76BF80DB0F0BD2A462346FEF788F8CD
:1033F0003A46039BFEF761F82A462346FEF768F833
:103400000DB0F0BD0B463A4628462146FEF755F86A
:103410000022D243FEF798F900223B4BE0E700225E
:103420003F4B2846214600F03BF910D20022364B94
:1034300028462146FEF734F83A46059BFEF748F841
:10344000032300229B07FEF75BF80DB0F0BD3A4660
:1034500028462146059BFEF730F80122FEF774F955
:1034600000222C4BFEF71CF80DB0F0BD002002909E
:10347000142E13DA012040052649F0400B1A009360
:103480003A4628462146059BFEF722F8009B029A01
:10349000FEF71EF8320589180DB0F0BD2148029ADA
:1034A000801B03053846FDF7FBFF2A462346FEF73F
:1034B0000FF80022174BFDF7F3FF320589180DB006
:1034C000F0BD00007A684340422E86400000F07F45
:1034D0000000F0BFEF39FAFE59F3F8C21F6EA501E4
:1034E000422ED63FB2A2F03F0000E0FE422EE63F61
:1034F000763C7935EF39EABDEF39EA3DFE822B653E
:103500004715F73F0000E0BF0000E03F0000903C9F
:10351000800700000000F03F000008400000184055
:103520000000D0BFFF03000010B500F065F9EFF315
:103530000080800001D5012010BD002010BD10B515
:1035400000F05AF9EFF300804000800F012800D00E
:10355000002010BD10B500F079F9EFF30080800075
:1035600001D4012010BD002010BD30380A2801D23E
:103570000120704700207047F8B506464A002F48E2
:1035800052080C4682420DDB824201DC002E03D041
:103590003046FFF7F9FDF8BD2949E20F0020D207B8
:1035A0001143F8BD2748824240DA7920C0058242A3
:1035B00009DA3046FFF77CFD042801D1FFF7F4FD5E
:1035C00030462146F8BD1E4D610001274908BF075E
:1035D0003046AA4213DB0122FEF7B6F8FFF7EEFDF4
:1035E00000223B46FDF75CFF02460B4600203946B1
:1035F000FDF73AF800222B46FDF76AFF18E0032397
:1036000000229B07FDF77CFFFFF7D8FD05460E461D
:1036100000223B46FDF744FF024628460B460125A3
:103620003146ED076940FDF71FF801E0044900202D
:10363000002CC7DA0122D2075140F8BD0000F07F0C
:103640000000F03F0000364010B500290AD008788D
:10365000002807D005487844FEF760FD002801D017
:10366000002010BD0248784410BD0000360500005F
:103670002E05000010B500290AD00878002807D0D0
:1036800005487844FEF74AFD002801D0002010BD0F
:103690000248784410BD0000260500001E05000009
:1036A00070B501252D050C001C4310D4EC4206D446
:1036B000AC420AD4994200D070BD904270BDE9423C
:1036C00017D4EB4215D4994270BD894270BDEC42CB
:1036D00006D5AC42F9D58B4200D070BD824270BD98
:1036E0006D004C00EC4204D25C00EC4201D28B42F3
:1036F00070BD034C30B4FEF781FD30BC70BD00BF1F
:103700001900160470B501252D051C000C4310D4BA
:10371000EC4206D4AC420AD48B4200D070BD824247
:1037200070BDEB4217D4E94215D48B4270BD9B4269
:1037300070BDEC4206D5AC42F9D5994200D070BDBF
:10374000904270BD6D005C00EC4204D24C00EC4233
:1037500001D2994270BD0FB40CBC03BC024C30B412
:10376000FEF74CFD30BC70BD1900160470B5012584
:10377000ED0704004C4020D4441A01D2001B091963
:10378000C60D4B00F2B2FF2A29D01B0E2CD000022E
:103790000C0228432C43D31ADC40051910D2280A06
:1037A00002D3401C6D0611D0761EF6058019FF2A43
:1037B00000DA70BDC00DC00570BD694000F0CEF8E4
:1037C00001200543C541521C761CE8E764089C4073
:1037D000C90161408900E7D10124A043E4E71B0E41
:1037E000440200D0034870BD002AFCD1C00FC007BE
:1037F00070BD00BF0000C07F0123DB0502000A434B
:103800000DD4DA4203D49A4207D488427047D84292
:1038100014D4D94212D48842704780427047DA42A9
:1038200003D59A42F9D5814270475B004200DA42E3
:1038300004D24A00DA4201D28142704710B5024AEE
:10384000FEF704FC10BD00BF090013040123DB05D3
:1038500002000A430DD4DA4203D49A4207D48842C4
:103860007047D84214D4D94212D48842704780425B
:103870007047DA4203D59A42F9D5814270475B001E
:103880004200DA4204D24A00DA4201D28142704751
:1038900010B5024AFEF7DAFB10BD00BF090016049E
:1038A00070B5420064414B005C41120E39D01B0ED2
:1038B00038D0FF2A3CD0FF2B3AD0D2187F3A4002B2
:1038C0004902400A490A4518ED0106004E43000A24
:1038D000090A48430104731A4019190C4318990F37
:1038E00004D05B08012149075B1A521CD80904D394
:1038F000401CF50301D19D0607D0FF2A08D2D5054B
:1039000006D0E4072043401970BD0125A843F4E721
:10391000002A01DCE00770BD2402FF202043C0051F
:1039200070BD1B0EFF2A03D0FF2B01D0E00770BD36
:10393000FF2636064500B54206D84D00B54203D8ED
:10394000D218FF2A00D0E7E7004870BD0000C07F12
:1039500070B50125ED0704004C4022D4441A02D270
:103960006C40001B0919C60D4B00F2B2FF2A4BD068
:103970001B0E50D000020C02A8432C43D31ADC408B
:10398000051B05D5AD0019D36D08761E521E37D024
:10399000F605280A01D2801970BD70416D0603D06A
:1039A00070BD6940FFF7E8FE9C4009026140490094
:1039B00001D0401E70BD0124A04370BD6D081DD014
:1039C00001202B0C01D12D0410302B0E01D12D0222
:1039D00008302B0F01D12D01001DAB0F01D1AD001F
:1039E000801CEB0F01D16D00401C361A121A6D00BD
:1039F000680AF5054019012A02DB70BD002070BD80
:103A0000C036300AC00770BD1B0E440201D1FF2B27
:103A100000D1024870BD002AF0D070BD0000C07F08
:103A200003B402487844844603BC604735D4FFFFA2
:103A300080807F7E7D7C7B7A7978777676757473EB
:103A4000727171706F6E6E6D6C6C6B6A6A696868AA
:103A5000676666656464636362616160605F5F5E40
:103A60005E5D5D5C5C5B5B5A5A59595858575756B6
:103A7000565555555454535352525251515050501B
:103A80004F4F4F4E4E4D4D4D4C4C4C4B4B4B4A4A6D
:103A90004A494949484848474747474646464545B1
:103AA00045444444444343434342424242414141EA
:103AB000F41011111111A1BF8555FE19A0015A3F33
:103AC000B7DBAA9E19CE14BF3952E686CACFD03EC4
:103AD0002DC3096EB7FD8ABE02400000000000A0A1
:103AE0000000000005400000000000C800000000C9
:103AF0000C4000000000409C000000001940000045
:103B00000020BCBE0000000034400000BFC91B8E76
:103B100000000004B5400000504BCFD06607E2CF54
:103B2000010000006C4100003E8251AADFEEA73484
:103B300001000000D9420000DCB5A0E23A301F9736
:103B4000FFFFFFFFB4450000FD25A0C8E9A3C14F5A
:103B5000FFFFFFFFFF3F00000000008000000000AB
:103B6000FF3F00000000008000000000B83C00089B
:103B700000000020080000001C010008C03C0008F4
:103B800008000020B00600003C0100081C000000F6
:103B900043000000F8FFFFFF0C0000000E000000D3
:103BA0000F0000002E000000100100004300000084
:103BB000F8FFFFFF0040404040404040404041414E
:103BC00041414140404040404040404040404040F2
:103BD000404040404005020202020202020202028C
:103BE0000202020202202020202020202020200289
:103BF0000202020202029090909090901010101019
:103C000010101010101010101010101010101010B4
:103C10000202020202028888888888880808080848
:103C20000808080808080808080808080808080814
:103C3000020202024000000000000000000000003C
:103C40000000000000000000000000000000000074
:103C50000000000000000000000000000000000064
:103C60000000000000000000000000000000000054
:103C70000000000000000000000000000000000044
:103C80000000000000000000000000000000000034
:103C90000000000000000000000000000000000024
:103CA0000000000000000000000000000000000014
:103CB00000000000000000000100D007000020000C
:04000005080000C12E
:00000001FF
